:020000040800F2
:100000008006002089010008A30C0008BD0A000832
:10001000A10C00088F020008550D00080000000028
:10002000000000000000000000000000A70C000815
:100030009102000800000000A50C0008A90C0008AF
:10004000A3010008A3010008A3010008A301000800
:10005000A3010008A3010008A3010008A3010008F0
:10006000A3010008A3010008A3010008A3010008E0
:10007000A3010008A3010008A3010008A3010008D0
:10008000A3010008A3010008A3010008A3010008C0
:10009000A3010008A3010008A3010008A3010008B0
:1000A000A3010008A3010008A3010008A3010008A0
:1000B000A3010008A3010008A3010008A301000890
:1000C000A3010008A3010008A3010008A301000880
:1000D000A3010008A3010008A3010008A301000870
:1000E000A3010008A3010008A301000800F002F822
:1000F00000F03AF80AA090E8000C82448344AAF188
:100100000107DA4501D100F02FF8AFF2090EBAE885
:100110000F0013F0010F18BFFB1A43F0010318473B
:10012000140D0000340D0000103A24BF78C878C1C7
:10013000FAD8520724BF30C830C144BF04680C60ED
:10014000704700000023002400250026103A28BF35
:1001500078C1FBD8520728BF30C148BF0B60704739
:100160001FB51FBD10B510BD00F058F81146FFF7C0
:10017000F7FF00F001FE00F076F803B4FFF7F2FF9E
:1001800003BC00F07DF8000009488047094800479B
:10019000FEE7FEE7FEE7FEE7FEE7FEE7FEE7FEE737
:1001A000FEE7FEE704480549054A064B7047000094
:1001B0000D0D0008ED0000088000002080060020E2
:1001C00080020020800200204FF0000200B513469C
:1001D00094469646203922BFA0E80C50A0E80C5067
:1001E000B1F12001BFF4F7AF090728BFA0E80C5018
:1001F00048BF0CC05DF804EB890028BF40F8042B11
:1002000008BF704748BF20F8022B11F0804F18BF7D
:1002100000F8012B7047704770477047754600F033
:100220002BF8AE4605006946534620F00700854688
:1002300018B020B5FFF7B6FFBDE820404FF000062C
:100240004FF000074FF000084FF0000B21F00701BE
:10025000AC46ACE8C009ACE8C009ACE8C009ACE801
:10026000C0098D46704710B50446AFF300802046A4
:10027000BDE81040FFF781BF004870471C00002018
:1002800001491820ABBEFEE7260002007047FEE7DA
:100290007047000070B5044600F010F90546601C78
:1002A00002D004480078044400F008F9401BA04242
:1002B000FAD370BD0C0000202DE9F84FDFF8B8919B
:1002C000002409F1040A0AF1040B23460F270BF15D
:1002D000040EC9E00125A5402A40AA427DD1674EFF
:1002E000D1F804C0ACEB0608B44532D014DCBCF144
:1002F000030F3AD009DCBCF1000F2AD0BCF1010F8A
:100300001CD0BCF1020F31D11DE0BCF1110F17D090
:10031000BCF1120F2AD119E0B8F5881F19D006DCFC
:10032000B8F5803F15D0B8F5801F1FD111E0B8F5A2
:10033000001F0ED0B8F5041F18D10AE0CB6815E0F5
:10034000CB681B1D12E0CB6808330FE0CB680C3381
:100350000CE08B682BB1012B4FF0080303D04561F3
:1003600004E0042302E0056100E00023FF2A01D835
:10037000064601E000F104064FEA840501D9A5F123
:100380002005D6F8008007FA05FC28EA0C0803FAD5
:1003900005F548EA0508C6F800804D68ED0062D50D
:1003A000374DAE6946F00106AE61AD6924F0030633
:1003B00005F001050095334D06EB050CDCF80850FF
:1003C000A607360F07FA06F825EA0805DFF8B88011
:1003D000404503D14FF0000817E044E0DFF8AC805F
:1003E000404502D14FF001080FE0DFF8A4804045FE
:1003F00002D14FF0020808E0DFF89880404502D1B2
:100400004FF0030801E04FF0040808FA06F848EA44
:100410000508CCF808804D68D9F80060ED034D461A
:1004200001D5164300E096432E604D68DAF800606F
:10043000AD03554601D5164300E096432E604D6846
:10044000DBF80060ED025D4601D5164300E09643FF
:100450002E604D68DEF80060AD02754601D516438A
:1004600000E096432E60641C0D682A46E5407FF448
:1004700031AFBDE8F88F000000040140000011100A
:10048000001002400000014000080140000C014043
:1004900000100140001401408068084000D0012095
:1004A0007047C2680A4201D04161704701617047DC
:1004B0000AB1016170470904FBE700000148806848
:1004C000704700000C000020024881680278114447
:1004D000816070470C000020074810B5016841F0AA
:1004E00010010160032000F067F80F2000F006F80B
:1004F00000F024F8002010BD0020024070B50D4D22
:1005000004464FF47A712878B1FBF0F00A49096883
:10051000B1FBF0F000F0BEFA48B9102C07D200226F
:100520002146501E00F028F800206C6070BD0120AC
:1005300070BD00000C000020180000200C4808B519
:10054000816941F001018161816901F0010100913E
:10055000C16941F08051C161C06900F080500090D4
:100560000448416821F0E06141F00071416008BD3C
:100570000010024000000140F0B40E4B1B680C4616
:10058000C3F30223C3F10705042D00D90425191D67
:10059000072901D2002300E0DB1E012606FA05F13F
:1005A000491E214099409E40761E16403143F0BCC2
:1005B00000F0D1BB0CED00E0064900F0070208682E
:1005C0004FF6FF03184040EA0220034A1043086038
:1005D000704700000CED00E00000FA052DE9F0473F
:1005E0000F46050061D0434E306800F00700B84266
:1005F00009D2306820F0070038433060306800F0DE
:100600000700B84251D128683B4C810712D54007FA
:1006100003D5606840F4E06060602878000703D587
:10062000606840F4605060606068A96820F0F00085
:10063000084360602878C00728D06868012810D077
:100640002168022810D0890700292EDA616821F07C
:10065000030101436160FFF731FF804641F28839B1
:100660000DE021688903EFE78901EDE7FFF726FF39
:10067000A0EB0801494502D90320BDE8F087606876
:10068000696800F00C00B0EB810FEFD1306800F02A
:100690000700B8420BD9306820F0070038433060BB
:1006A000306800F00700B84201D00120E5E7287863
:1006B000400705D56068E96820F4E06008436060A1
:1006C0002878000706D56068296920F4605040EA60
:1006D000C100606000F018F86168084AC1F30311B6
:1006E000515CC8400649086006480068FFF706FFED
:1006F0000020C2E70020024000100240240E000843
:10070000180000201000002012A185B00FC98DE84C
:100710000F0014A0144A006804905168134801F0B7
:100720000C03042B10D0082B0ED1C1F38343C90353
:100730001DF803000AD5516804AAC1F34041515C79
:100740000A4A5043B0FBF1F005B0704708494843EE
:10075000FAE7000002030405060708090A0B0C0D5E
:100760000E0F1010010200000010024000127A006B
:1007700000093D002DE9F84F040070D02078C04DED
:10078000C00749D06868C0F38100012807D06868B5
:10079000C0F38100022809D16868C00306D5286823
:1007A000800339D560680028E7D035E06068B0F58F
:1007B000803F0BD010B1B0F5A02F11D0286820F4E5
:1007C00080302860286820F4802002E0286840F407
:1007D00080302860606890B1FFF770FE06460AE03E
:1007E000286840F480202860F0E700BFFFF766FE2D
:1007F000801B642873D828688003F7D50CE0FFF7C6
:100800005DFE064605E000BFFFF758FE801B64282A
:10081000F0D828688003F7D420789A4E80074FF0EC
:1008200001094FF0000839D5686810F00C0F07D0A7
:100830006868C0F38100022809D16868C00306D443
:100840002868800714D52069012808D110E02069A4
:10085000B0B1C6F80090FFF731FE074605E00AE1A7
:10086000FFF72CFEC01B0228C4D828688007F7D5E4
:100870002868616920F0F80040EAC10028600DE0B6
:10088000C6F80080FFF71AFE074604E0FFF716FEE1
:10089000C01B022823D828688007F7D420780007D7
:1008A0002CD57948A169D9B1C0F80090FFF706FEB0
:1008B000074604E0FFF702FEC01B02280FD8686A53
:1008C0008007F7D571484FF4FA510068B0FBF1F09A
:1008D000009000BF0098411E0091FAD20EE080E027
:1008E000C0F80080FFF7EAFD074604E0FFF7E6FDE9
:1008F000C01B022875D8686A8007F7D420784007A3
:1009000060D5E8690027C00008D4E86940F080504D
:10091000E861E869012700F0805000905C480168B8
:10092000C90513D40168834641F480710160FFF763
:10093000C5FD824606E000BFFFF7C0FDA0EB0A0040
:1009400064284ED8DBF80000C005F5D5E068012822
:100950000AD008B1052813D0286A20F001002862C7
:10096000286A20F0040002E0286A40F001002862B2
:10097000E06841F2883B98B1FFF7A0FD82460BE0AA
:10098000286A40F004002862EEE700BFFFF796FDFA
:10099000A0EB0A0159455AD8286A8007F6D50CE021
:1009A000FFF78CFD824605E0FFF788FDA0EB0A010A
:1009B00059454CD8286A8007F6D41FB1E86920F061
:1009C0008050E861E06988B36968C1F38101022958
:1009D00044D00228C6F8608004D0FFF76FFD0446BB
:1009E00038E034E0FFF76AFD074604E0FFF766FDF4
:1009F000C01B02282BD828688001F7D4206AB0F5E4
:100A0000803F05D16868A16820F400300843686021
:100A1000D4E908010843696821F474110843686047
:100A2000C6F86090FFF74AFD044606E025E000BFE7
:100A3000FFF744FD001B022809D828688001F7D57C
:100A40001BE000BFFFF73AFD001B022802D903207C
:100A5000BDE8F88F28688001F4D40EE00128F7D0B3
:100A60006868226A00F48031914204D1616A00F41E
:100A70007010884201D00120EAE70020E8E700007A
:100A80000010024000004242800442421800002050
:100A90000070004010B5401EB0F1807F01D30120EE
:100AA00010BD4FF0E02460610F21601700F053F992
:100AB0000020A06107202061002010BDFEE700009B
:100AC0002DE9F05F02005348534C4FF001054FF001
:100AD00002064FF004074FF003084FF4F8534FF4A9
:100AE00080794FF4007A4FF4806B04D0012A2BD028
:100AF000022A4FD12BE005294CD2DFE801F0030B8D
:100B00005C131C00012219460646FFF7D1FC0022A7
:100B1000494677E0012219460546FFF7C9FC002245
:100B200051465FE0012219460546FFF7C1FC00224D
:100B30004FF4006137E0012219460546FFF7B8FC83
:100B400000224FF480511EE041B101290DD005294A
:100B500020D2DFE801F04F3F302111000122194679
:100B6000FFF7A6FCA068400050E000221946FFF7FE
:100B70009FFCA06840000AE0012219460546FFF7E5
:100B800097FC002249462846FFF792FCA068FFF731
:100B900081FB0020BDE8F09F012219460546FFF7C2
:100BA00087FC002251462846FFF782FCA068FFF729
:100BB00071FB3846EEE7012219460546FFF778FC3F
:100BC000002259462846FFF773FCA068FFF762FB36
:100BD0004046DFE7012219460546FFF769FC00227F
:100BE0004FF400612846FFF763FCA068FFF752FB53
:100BF0003046CFE7012219460646FFF759FC00228E
:100C00004FF480513046FFF753FCA068FFF742FBDA
:100C10002846BFE70008014000000020F0B585B07D
:100C200000241C480094019402940394816941F0CB
:100C300020018161816901F020010491816941F005
:100C400008018161816901F008010491816941F025
:100C5000040181618069104F00F004004FF4F856E0
:100C60000490012231463846FFF722FC4FF44050F1
:100C700001258DE8310069460848FFF71DFB022079
:100C8000CDE90240CDE9006569463846FFF714FB1F
:100C900005B0F0BD0010024000080140000C01400A
:100CA000FEE7FEE770477047FFF70EBC30B58FB028
:100CB00028216846FFF788FA14210AA8FFF784FA6A
:100CC00001210804CDE900100024029402250491BA
:100CD000CDE907504FF4E01009906846FFF74AFD50
:100CE00008B172B6FEE70F20CDE90A054FF4806027
:100CF000CDE90C4002210AA80E94FFF76FFC0028F2
:100D000001D072B6FEE70FB030BD00000D4801689B
:100D100041F00101016041680B4A114041600168E6
:100D20000A4A11400160016821F480210160416894
:100D300021F4FE0141604FF41F0181600449C003AA
:100D400008607047001002400000FFF8FFFFF6FE49
:100D500008ED00E0FEE70907090E002804DB00F1BA
:100D6000E02080F80014704700F00F0000F1E02050
:100D700080F8141D70470000FFF7AEFBFFF796FFE9
:100D8000FFF74CFF244D254F254C4FF480594FF46D
:100D9000FA784FF4005A002649462846FFF77CFBB4
:100DA000E07058B9A178012908D1A16864290DD053
:100DB000C8290DD0414501D16421A160A0705146E0
:100DC0002846FFF769FB607028B118E0C821F4E7F6
:100DD000C4F80880F2E72078012810D14FF4407160
:100DE0003846FFF75EFB607988B1012811D0667143
:100DF000267101224FF4F8513846FFF759FB60780D
:100E0000207021796079FFF75BFE2071C4E7012033
:100E100000E002206071EBE7000C01400008014097
:100E20000000002000000000000000000102030498
:100E300006070809540E0008000000201C000000EE
:100E400028010008700E00081C0000206406000045
:100E500044010008010101010000000064000000DD
:100E60000100000010000000000000000024F40059
:04000005080000ED02
:00000001FF
